{
  "transactions": [
    {
      "hash": "0x9aa1af68c2c6f4c495f0d36504a93e0aee82e460d32c742db41603040fe0236d",
      "transactionType": "CALL",
      "contractName": null,
      "contractAddress": "0x779877a7b0d9e8603169ddbd7836e478b4624789",
      "function": "transferAndCall(address,uint256,bytes)",
      "arguments": [
        "0x9DdfaCa8183c41ad55329BdeeD9F6A8d53168B1B",
        "3000000000000000000",
        "0x0163a4e8153a408a0455573e57cca0b77694fa2beaf48e587108f7a0fe55964c"
      ],
      "transaction": {
        "from": "0xb63a6d677b8422aab9f48252694771950c277a37",
        "to": "0x779877a7b0d9e8603169ddbd7836e478b4624789",
        "gas": "0x14cbb",
        "value": "0x0",
        "input": "0x4000aea00000000000000000000000009ddfaca8183c41ad55329bdeed9f6a8d53168b1b00000000000000000000000000000000000000000000000029a2241af62c0000000000000000000000000000000000000000000000000000000000000000006000000000000000000000000000000000000000000000000000000000000000200163a4e8153a408a0455573e57cca0b77694fa2beaf48e587108f7a0fe55964c",
        "nonce": "0x28",
        "chainId": "0xaa36a7"
      },
      "additionalContracts": [],
      "isFixedGasLimit": false
    }
  ],
  "receipts": [
    {
      "status": "0x1",
      "cumulativeGasUsed": "0xb8e43d",
      "logs": [
        {
          "address": "0x779877a7b0d9e8603169ddbd7836e478b4624789",
          "topics": [
            "0xddf252ad1be2c89b69c2b068fc378daa952ba7f163c4a11628f55a4df523b3ef",
            "0x000000000000000000000000b63a6d677b8422aab9f48252694771950c277a37",
            "0x0000000000000000000000009ddfaca8183c41ad55329bdeed9f6a8d53168b1b"
          ],
          "data": "0x00000000000000000000000000000000000000000000000029a2241af62c0000",
          "blockHash": "0xb1c3b8b1a3452ea053aad4de2dbf62b714497dc1f0de08873d83b6660eb924cc",
          "blockNumber": "0x7af484",
          "blockTimestamp": "0x67f17ca8",
          "transactionHash": "0x9aa1af68c2c6f4c495f0d36504a93e0aee82e460d32c742db41603040fe0236d",
          "transactionIndex": "0x51",
          "logIndex": "0x9e",
          "removed": false
        },
        {
          "address": "0x779877a7b0d9e8603169ddbd7836e478b4624789",
          "topics": [
            "0xe19260aff97b920c7df27010903aeb9c8d2be5d310a2c67824cf3f15396e4c16",
            "0x000000000000000000000000b63a6d677b8422aab9f48252694771950c277a37",
            "0x0000000000000000000000009ddfaca8183c41ad55329bdeed9f6a8d53168b1b"
          ],
          "data": "0x00000000000000000000000000000000000000000000000029a2241af62c0000000000000000000000000000000000000000000000000000000000000000004000000000000000000000000000000000000000000000000000000000000000200163a4e8153a408a0455573e57cca0b77694fa2beaf48e587108f7a0fe55964c",
          "blockHash": "0xb1c3b8b1a3452ea053aad4de2dbf62b714497dc1f0de08873d83b6660eb924cc",
          "blockNumber": "0x7af484",
          "blockTimestamp": "0x67f17ca8",
          "transactionHash": "0x9aa1af68c2c6f4c495f0d36504a93e0aee82e460d32c742db41603040fe0236d",
          "transactionIndex": "0x51",
          "logIndex": "0x9f",
          "removed": false
        },
        {
          "address": "0x9ddfaca8183c41ad55329bdeed9f6a8d53168b1b",
          "topics": [
            "0x1ced9348ff549fceab2ac57cd3a9de38edaaab274b725ee82c23e8fc8c4eec7a",
            "0x0163a4e8153a408a0455573e57cca0b77694fa2beaf48e587108f7a0fe55964c"
          ],
          "data": "0x0000000000000000000000000000000000000000000000004563918244f400000000000000000000000000000000000000000000000000006f05b59d3b200000",
          "blockHash": "0xb1c3b8b1a3452ea053aad4de2dbf62b714497dc1f0de08873d83b6660eb924cc",
          "blockNumber": "0x7af484",
          "blockTimestamp": "0x67f17ca8",
          "transactionHash": "0x9aa1af68c2c6f4c495f0d36504a93e0aee82e460d32c742db41603040fe0236d",
          "transactionIndex": "0x51",
          "logIndex": "0xa0",
          "removed": false
        }
      ],
      "logsBloom": "0x00000004000000000000200000800000000000000020000000000000020000000000000000000000000000200000000008000000000000000000000000000000000000000000000000000008000000000000000000000000000020000020000008000000000000000000000000000000000000000000000000000010000040000000000000000000000000010000800000000020000000000000000000000000000000000000000000000000410000000000080000000000000004000000000000000002000000000000000000000000000000000000000100000000000000000010000000000000800000000000000000000000000000000000000000000000",
      "type": "0x2",
      "transactionHash": "0x9aa1af68c2c6f4c495f0d36504a93e0aee82e460d32c742db41603040fe0236d",
      "transactionIndex": "0x51",
      "blockHash": "0xb1c3b8b1a3452ea053aad4de2dbf62b714497dc1f0de08873d83b6660eb924cc",
      "blockNumber": "0x7af484",
      "gasUsed": "0xf0e5",
      "effectiveGasPrice": "0x43553a48",
      "from": "0xb63a6d677b8422aab9f48252694771950c277a37",
      "to": "0x779877a7b0d9e8603169ddbd7836e478b4624789",
      "contractAddress": null
    }
  ],
  "libraries": [],
  "pending": [],
  "returns": {},
  "timestamp": 1743879339,
  "chain": 11155111,
  "commit": "6f2d7c3"
}