{
  "transactions": [
    {
      "hash": "0xc3561214e6ffd9a8bd605c9464bf23f15405bd1d174b2df69f161b4d4cbae03c",
      "transactionType": "CALL",
      "contractName": null,
      "contractAddress": "0x779877a7b0d9e8603169ddbd7836e478b4624789",
      "function": "transferAndCall(address,uint256,bytes)",
      "arguments": [
        "0x9DdfaCa8183c41ad55329BdeeD9F6A8d53168B1B",
        "3000000000000000000",
        "0x0163a4e8153a408a0455573e57cca0b77694fa2beaf48e587108f7a0fe55964c"
      ],
      "transaction": {
        "from": "0xb63a6d677b8422aab9f48252694771950c277a37",
        "to": "0x779877a7b0d9e8603169ddbd7836e478b4624789",
        "gas": "0x14cbb",
        "value": "0x0",
        "input": "0x4000aea00000000000000000000000009ddfaca8183c41ad55329bdeed9f6a8d53168b1b00000000000000000000000000000000000000000000000029a2241af62c0000000000000000000000000000000000000000000000000000000000000000006000000000000000000000000000000000000000000000000000000000000000200163a4e8153a408a0455573e57cca0b77694fa2beaf48e587108f7a0fe55964c",
        "nonce": "0x29",
        "chainId": "0xaa36a7"
      },
      "additionalContracts": [],
      "isFixedGasLimit": false
    }
  ],
  "receipts": [
    {
      "status": "0x1",
      "cumulativeGasUsed": "0x1002aff",
      "logs": [
        {
          "address": "0x779877a7b0d9e8603169ddbd7836e478b4624789",
          "topics": [
            "0xddf252ad1be2c89b69c2b068fc378daa952ba7f163c4a11628f55a4df523b3ef",
            "0x000000000000000000000000b63a6d677b8422aab9f48252694771950c277a37",
            "0x0000000000000000000000009ddfaca8183c41ad55329bdeed9f6a8d53168b1b"
          ],
          "data": "0x00000000000000000000000000000000000000000000000029a2241af62c0000",
          "blockHash": "0xe85ffa876ffb7d699a6cc4157713e74c89f9bdbd3d48d5ce9dd824768e5f11d4",
          "blockNumber": "0x7b0ea1",
          "blockTimestamp": "0x67f2c00c",
          "transactionHash": "0xc3561214e6ffd9a8bd605c9464bf23f15405bd1d174b2df69f161b4d4cbae03c",
          "transactionIndex": "0x4b",
          "logIndex": "0x72",
          "removed": false
        },
        {
          "address": "0x779877a7b0d9e8603169ddbd7836e478b4624789",
          "topics": [
            "0xe19260aff97b920c7df27010903aeb9c8d2be5d310a2c67824cf3f15396e4c16",
            "0x000000000000000000000000b63a6d677b8422aab9f48252694771950c277a37",
            "0x0000000000000000000000009ddfaca8183c41ad55329bdeed9f6a8d53168b1b"
          ],
          "data": "0x00000000000000000000000000000000000000000000000029a2241af62c0000000000000000000000000000000000000000000000000000000000000000004000000000000000000000000000000000000000000000000000000000000000200163a4e8153a408a0455573e57cca0b77694fa2beaf48e587108f7a0fe55964c",
          "blockHash": "0xe85ffa876ffb7d699a6cc4157713e74c89f9bdbd3d48d5ce9dd824768e5f11d4",
          "blockNumber": "0x7b0ea1",
          "blockTimestamp": "0x67f2c00c",
          "transactionHash": "0xc3561214e6ffd9a8bd605c9464bf23f15405bd1d174b2df69f161b4d4cbae03c",
          "transactionIndex": "0x4b",
          "logIndex": "0x73",
          "removed": false
        },
        {
          "address": "0x9ddfaca8183c41ad55329bdeed9f6a8d53168b1b",
          "topics": [
            "0x1ced9348ff549fceab2ac57cd3a9de38edaaab274b725ee82c23e8fc8c4eec7a",
            "0x0163a4e8153a408a0455573e57cca0b77694fa2beaf48e587108f7a0fe55964c"
          ],
          "data": "0x0000000000000000000000000000000000000000000000006f05b59d3b20000000000000000000000000000000000000000000000000000098a7d9b8314c0000",
          "blockHash": "0xe85ffa876ffb7d699a6cc4157713e74c89f9bdbd3d48d5ce9dd824768e5f11d4",
          "blockNumber": "0x7b0ea1",
          "blockTimestamp": "0x67f2c00c",
          "transactionHash": "0xc3561214e6ffd9a8bd605c9464bf23f15405bd1d174b2df69f161b4d4cbae03c",
          "transactionIndex": "0x4b",
          "logIndex": "0x74",
          "removed": false
        }
      ],
      "logsBloom": "0x00000004000000000000200000800000000000000020000000000000020000000000000000000000000000200000000008000000000000000000000000000000000000000000000000000008000000000000000000000000000020000020000008000000000000000000000000000000000000000000000000000010000040000000000000000000000000010000800000000020000000000000000000000000000000000000000000000000410000000000080000000000000004000000000000000002000000000000000000000000000000000000000100000000000000000010000000000000800000000000000000000000000000000000000000000000",
      "type": "0x2",
      "transactionHash": "0xc3561214e6ffd9a8bd605c9464bf23f15405bd1d174b2df69f161b4d4cbae03c",
      "transactionIndex": "0x4b",
      "blockHash": "0xe85ffa876ffb7d699a6cc4157713e74c89f9bdbd3d48d5ce9dd824768e5f11d4",
      "blockNumber": "0x7b0ea1",
      "gasUsed": "0xf0e5",
      "effectiveGasPrice": "0x84c1570",
      "from": "0xb63a6d677b8422aab9f48252694771950c277a37",
      "to": "0x779877a7b0d9e8603169ddbd7836e478b4624789",
      "contractAddress": null
    }
  ],
  "libraries": [],
  "pending": [],
  "returns": {},
  "timestamp": 1743962126,
  "chain": 11155111,
  "commit": "6f2d7c3"
}